:10000300120000E4FBFD7FD0120083E4FD7FD012D9
:10001300005E8F087F80120000E508C4540F24306F
:10002300FF120000E508540F2430FF12000080E4A3
:0900DE00C2B0D2B1D2B0C2B1220D
:02003300AD0717
:10003500E4FCC2B074807E00A804088006CEA2E766
:1000450013CE13D8F8FFEDFBEF5B6003D38001C33C
:0800550092B1D2B00CBC08DA34
:01005D002280
:0B00BD001200331200C8AF0112003324
:0A00C800C2B0D2B1D2B020B1FD22C7
:0900E700C2B0C2B1D2B0D2B12204
:0700F000C2B0D2B1D2B02270
:10008300AE07AA03A9051200DE1200BDAF021200DB
:0E009300331200C81200E77F0A7E0002000050
:1000A100E4FFFEC2B0D2B030B10D7480A806088062
:0B00B10002C313D8FC42070EBE08E893
:0100BC002221
:04005E00AA07A9053F
:10006200E4FF1200DEAF021200BD1200DEEA44011C
:10007200FF1200331200C81200A11200F01200E7B2
:01008200225B
:030000000200D229
:0C00D200787FE4F6D8FD75810802000379
:00000001FF
