:0A01ED00C0F9A4B0999282F8809046
:0C01E0000108FF0109FF010AFF010BFFED
:1001B300D3EF9400EE9400400F7DFFDDFE7DE8DD7C
:0801C300FEEF1F70EB1E80E847
:0101CB002211
:10016300EF9001ED93FFA200928730E603D3800165
:10017300C39286EF30E503D38001C39285EF30E469
:1001830003D38001C39284EF30E303D38001C3928E
:1001930083EF30E203D38001C39282EF30E103D3D4
:0F01A3008001C39281EF30E003D38001C39280CB
:0101B200222A
:04008F00AB07AA060B
:100093007C037DE812010E8F0C7C007D64AF03AE00
:1000A3000212010E7C007D0A12010E8D0D7C007D73
:1000B30064AF03AE0212010E7E007F0ACFCDCFCE16
:1000C300CCCE12010E8F0EAE02AF037C007D0A125E
:1000D300010E8D0FE50830E703D38001C39200AF13
:1000E3000C120163C2A37F0A7E001201B3D2A3E5FF
:1000F3000930E703D38001C39200AF0D120163C23D
:0A010300A27F057E001201B3D2A214
:01010D0022CF
:1001CC00750A7FC2A3C2A2C2A1C2A07FC77E0412BD
:0401DC00008F80F719
:03000000020003F8
:0C000300787FE4F6D8FD75812002004AE9
:10010E00BC000BBE0029EF8DF084FFADF022E4CCD5
:10011E00F875F008EF2FFFEE33FEEC33FCEE9DEC9E
:10012E00984005FCEE9DFE0FD5F0E9E4CEFD22EDE4
:10013E00F8F5F0EE8420D21CFEADF075F008EF2F2E
:10014E00FFED33FD4007985006D5F0F222C398FD1F
:05015E000FD5F0EA22BC
:10000F000201CCE493A3F8E493A34003F68001F23A
:10001F0008DFF48029E493A3F85407240CC8C333F2
:10002F00C4540F4420C8834004F456800146F6DFC1
:10003F00E4800B01020408102040809001E0E47E70
:10004F00019360BCA3FF543F30E509541FFEE493B6
:10005F00A360010ECF54C025E060A840B8E493A37D
:10006F00FAE493A3F8E493A3C8C582C8CAC583CAA8
:10007F00F0A3C8C582C8CAC583CADFE9DEE780BE60
:0101EC000012
:00000001FF
