:020000040000FA
:1000000018F09FE518F09FE518F09FE518F09FE5C0
:1000100018F09FE50000A0E1F0FF1FE518F09FE554
:1000200054000000400000005402000044000000A2
:1000300048000000000000004C00000050000000DC
:10004000FEFFFFEAFEFFFFEAFEFFFFEAFEFFFFEA18
:10005000FEFFFFEA98009FE5AA10A0E35520A0E369
:100060002430A0E3043080E50130A0E3003080E5D7
:100070000C1080E50C2080E5083090E5013B13E290
:10008000FCFFFF0A0330A0E3003080E50C1080E5A0
:100090000C2080E55C009FE50410A0E3041080E5DF
:1000A0000210A0E3001080E54C009FE5DBF021E3A7
:1000B00000D0A0E1000040E2D7F021E300D0A0E1B1
:1000C000000040E2D1F021E300D0A0E1000040E2D6
:1000D000D2F021E300D0A0E1400040E2D3F021E3E0
:1000E00000D0A0E1200040E210F021E30C009FE5E9
:1000F00010FF2FE180C01FE000C01FE0A0080040FB
:10010000040100000CD09FE5BB0000EB00009FE560
:1001100010FF2FE149030000400800407847C04627
:1001200000C00FE19FF021E30030D1E5000053E172
:100130000600000A013083E20030C1E50030D2E55C
:10014000013083E2000053E10030A003930042E15C
:100150000CF021E11EFF2FE17847C04600C00FE1FF
:100160009FF021E30030D0E5013043E20030C0E5EC
:100170000CF021E11EFF2FE1406A85467047000028
:100180006B4607B406480360064807497847C046EF
:1001900000200FE10F2002E20020C1E510FF2FE157
:1001A00018000040110900001C0000408446034B69
:1001B0001B680C3B07CB0023604700001800004081
:1001C00003002DE900204DE900104FE101001DE979
:1001D00004E04EE2024020E9004040E9040040E231
:1001E000FC1F20E90C00BDE80C0020E90040A0E164
:1001F0009FF021E35C001FE500D090E53C009FE507
:100200000FE0A0E110FF2FE134009FE50410D0E5DE
:100210000510C0E50010A0E30410C0E51FF021E3C5
:100220000400A0E11C109FE511FF2FE10400074826
:100230007847C04693F021E310E09FE510FF2FE1DF
:10024000A903000020000040F9090000C5030000D8
:100250009802000000C04FE120001CE3B2C05E1114
:10026000FFCCCC1304C01E05FFC4CC0300005CE32C
:100270001C00001A00204DE998309FE502001DE99E
:1002800000C04FE1F05F21E9003093E513FF2FE15B
:100290007847C0460040A0E1240094E52110D4E551
:1002A000000051E30500001AF00FB0E80240B0E88A
:1002B00001000DE900205DE901F06FE10EF0B0E111
:1002C000401080E202000DE900205DE9381090E561
:1002D00034E080E20040DEE801F06FE1FF1F1EE93C
:1002E00008E09EE50EF0B0E100412DE928809FE591
:1002F000008098E508005CE1FEFFFF2A14809FE57E
:100300000CC198E700804FE10FE0A0E11CFF2FE156
:1003100008F06FE10081FDE82804000024040000DB
:100320000E484168491C4160FCE700F037FC0B4C6B
:100330000023A0600A481A00012100F0E7FBE060FA
:100340002068401C2060FCE7002210B50548110021
:10035000FFF716FF10BC08BC002018470000004043
:10036000210300002B030000FEE77047FEE717495A
:1003700017488161032141610121416015481649F7
:10038000486316481649C86316492520C863704754
:1003900011492020886170470D48806870470C48DB
:1003A0000068C007C00F70470949012008600A486B
:1003B0002021C1610022026341617047064920206B
:1003C000486170470449202008617047EF490200E6
:1003D000008000E0E803000000F0FFFFC001000023
:1003E00000F1FFFF00F2FFFF04002DE50000A0E395
:1003F000D00F00E504009DE404F05EE201C08FE24E
:100400001CFF2FE1054C064D04E020000FC800F052
:100410001FF81034AC42F8D300F016F8CC0B0000F3
:10042000EC0B0000080000005504000089040000E7
:1004300097040000AF040000B7040000BD030000F3
:10044000BF040000C10400007847C0462EFFFFEA49
:10045000184700000B4D04002868002806D04162B0
:10046000002220304270080000F03AFA02202C608E
:100470006070E078C046C046FFF7A4FF2000FFF799
:1004800007FF00001400004001000068002801D0B0
:1004900002680A607047814202D342688A4201D8EA
:1004A0000120704702680A600160002070470188DF
:1004B000491C018070470188491E018070477047C0
:1004C00070470000020000EA043090E4042042E299
:1004D000043081E4000052E3FAFFFF1A1EFF2FE10F
:1004E0001EFF2FE10000A0E3000052E304204212AF
:1004F00004008114FBFFFF1A1EFF2FE110B4002A35
:1005000006DA52005208D21DD308DB00102203E0A5
:10051000D21C93089B000C22002B02D09C188C420A
:1005200002D9012010BC70474118041D0AC482186A
:10053000C91A0260D018884202D810600200F9E798
:1005400000201060EEE700000F4910B50D484A6822
:100550000E4903680968934203D00260C2885218AA
:10056000828082880904090C8A4208D10021016036
:10057000054800F095F80100034800F055F910BC5B
:1005800008BC184728000040BC070040300000406D
:1005900070B51C4DE868002831D0A88A401E00269E
:1005A000A88226E0A068002808D0616841606068E1
:1005B000002802D0A16881606660A6601148210011
:1005C000183800F031F9A08AA8826078042804D194
:1005D0000D49E08A09884018A0820120202160701E
:1005E0000855E068E860E068002801D00561E66031
:1005F0002661A88A002802D1EC68002CD2D170BCF8
:1006000008BC1847D40700403000004070B5040013
:100610000FD00D4DA17828680126827891420DD91E
:1006200000F022F928684670200000DF70BC08BC8A
:100630001847064800F034F800DFF7E703482100C8
:10064000667000F0F1F8F1E714000040BC070040CC
:1006500010B50400008B084320836278618B062A62
:1006600017D0052A12D10A0010420FD0024062832F
:1006700088432083200000F001F9012060700221EE
:10068000202001550548210000F0CEF810BC08BC20
:1006900018470A008243EBD0F8E70000BC0700408F
:1006A00001004068002243684B600B78022B05D0A4
:1006B000012B03D0032B01D0426070474368002B0D
:1006C00001D09960426082607047000070B50400FC
:1006D00016000020012220706270A1706060A0608E
:1006E000E0602061A082E0822500208320356083C5
:1006F00028706B70608C002802D1054801DFA06271
:100700003100200000F012F870BC08BC184700004F
:100710006801004003480021016003490988491E1F
:10072000C180704728000040B40B000030B4428CF8
:10073000920803D1164A12881204920C836A92001E
:100740009A18530700D5121F21231B5C002B18D0C9
:10075000104B403AD1631B78002B01D00E4B01E0C7
:100760000D4B0F3BCC07936302D0202423439363AC
:10077000C5690123002415609D005B1C0E2B54519C
:10078000FAD34262C1620549806A016030BC704799
:10079000B00B00001C0000401F000040A52E5AE2D4
:1007A00070B5040040680D000026002805D0607870
:1007B000022819D0A08900281ED0A089E18988428A
:1007C0002CD2208980000019056120000C3003DF45
:1007D0002089401C0004000C2081E189884200D15E
:1007E000268170BC08BC184720006670FFF758FFD0
:1007F00004002030067007E02000FFF751FF0400DE
:100800000421C5612030017001206070200000F0DB
:1008100035F80448210000F007F8E2E70320FFF76D
:10082000A5FDDEE7BC07004030B402780023022AB1
:1008300003D0012A01D0032A00D101238C7800E0E3
:1008400010004268002A02D09578A542F8D24A608A
:10085000002B416005D0002A00D09160886030BC38
:1008600070470020FAE70000034900234A688360CC
:100870004260486070470000BC07004010B4016946
:1008800000290FD0C3680022CB60C368002B07D0BB
:100890008B8A848A1B198B82C3681961C26000E04D
:1008A0008A82026110BC704710B54168002910D0DF
:1008B000FFF7F6FE0400FFF7E1FF0120607003215F
:1008C0002020015505482100FFF7AEFF10BC08BCF1
:1008D00018474188491C4180F8E70000BC070040E8
:1008E00010B5002800D1684607490968896A814225
:1008F00003D808680549884202D00120FFF736FD79
:1009000010BC08BC1847000014000040A52E5AE295
:10091000C046C04605DF00202649274A040002E001
:100920008300401CCC5013889842F9D323483022CE
:1009300001882348FFF7E2FD224801210088C9070A
:100940000004000C4218204801682048FFF7D6FD3B
:100950001F48082201881F480068FFF7CFFD1E4D81
:10096000FF20E87000231D4A190028006C84FFF75F
:10097000ADFE1B480421017044601A480170C46038
:10098000046184822800FFF7F7FB174818490560C7
:10099000022068701548047044700978C170FFF730
:1009A000E6FCFFF7B7FE1348FFF700FCFFF7DCFC9F
:1009B000FEE7000074070040AC0B0000C00B000015
:1009C0003C000040B00B0000C40B00006801004078
:1009D000CA0B0000100000408C07004069030000B3
:1009E000BC070040D407004014000040F00600405F
:1009F000C80B00000D0B00002E4E010030682122B4
:100A000041620121115400274170FFF72DFF2A4C4C
:100A10006079002808D0FFF7BFFC216888420ED219
:100A2000FFF7BDFC00280AD1C046C046FFF78CFD89
:100A300022480168491C0160FFF7AAFD0127002038
:100A400060711F4C657811E0E80001194868027870
:100A5000002A12D0012A16D0FFF726FFE0786D1C7D
:100A6000854200D10025A01CFFF776FBA078002866
:100A7000EAD1012F65700AD00BE009890904090C3D
:100A8000FFF7E6FDEAE78968FFF78AFEE6E700F090
:100A90001BF83068406AFFF723FF0A48FFF700FEA3
:100AA000022130604170C078C046C0463068FFF710
:100AB000BDFB00001400004020000040300000405A
:100AC000F0060040BC07004070B50E4C20680028BE
:100AD00014D0A0880C4E401EA08009E0E888FFF7E3
:100AE00044FCA8882900A08028682060306802DFC4
:100AF000A088002802D12568002DEFD170BC08BC69
:100B0000184700003400004010000040FFB51E00F0
:100B100017000D0081B005DF280600D16D1C1C48B0
:100B200001DF04000FD02802000CA76260842906B0
:100B3000E661019A090E01232000FFF7C7FD154960
:100B4000154A01200DE0FFF73DFC002005B0F0BC88
:100B500008BC184783005B18403BDB6B002B10D0B0
:100B6000401C13889842F5D9E178E06AFF310131E1
:100B7000C046C0462000FFF749FDFFF723FCE078A0
:100B8000E4E7830059184039CC63E070ECE70000DB
:100B90003C00004074070040AC0B000002480068B5
:100BA000002800D0C0787047140000400600000004
:100BB000C80000010500010010270000000001002E
:100BC0002C0100008805000010000000EC0B000064
:100BD000000000403C000000C4040000280C00009D
:100BE0003C00004064080000E40400000000000035
:100BF00000000000000000000000000000000000F5
:100C000000000000000000000000000000000000E4
:100C100000000000000000000000000000000000D4
:080C20000000000000000000CC
:0400000500000104F2
:00000001FF
